{
  "contractName": "Voter",
  "abi": [
    {
      "inputs": [
        {
          "internalType": "address",
          "name": "_candidateAddress",
          "type": "address"
        }
      ],
      "stateMutability": "nonpayable",
      "type": "constructor"
    },
    {
      "inputs": [
        {
          "internalType": "string",
          "name": "national_id",
          "type": "string"
        },
        {
          "internalType": "string",
          "name": "_party_name",
          "type": "string"
        }
      ],
      "name": "insertVoteByParty",
      "outputs": [],
      "stateMutability": "nonpayable",
      "type": "function"
    },
    {
      "inputs": [
        {
          "internalType": "string",
          "name": "_party_name",
          "type": "string"
        }
      ],
      "name": "getVotesByParty",
      "outputs": [
        {
          "internalType": "uint256",
          "name": "total_votes",
          "type": "uint256"
        }
      ],
      "stateMutability": "view",
      "type": "function"
    },
    {
      "inputs": [
        {
          "internalType": "string",
          "name": "_party_name",
          "type": "string"
        }
      ],
      "name": "verifyMyVote",
      "outputs": [
        {
          "internalType": "string",
          "name": "nicop",
          "type": "string"
        },
        {
          "internalType": "uint256",
          "name": "voter_index",
          "type": "uint256"
        }
      ],
      "stateMutability": "view",
      "type": "function"
    }
  ],
  "bytecode": "0x608060405234801561001057600080fd5b506040516110493803806110498339818101604052810190610032919061008e565b80600160006101000a81548173ffffffffffffffffffffffffffffffffffffffff021916908373ffffffffffffffffffffffffffffffffffffffff16021790555050610100565b600081519050610088816100e9565b92915050565b6000602082840312156100a057600080fd5b60006100ae84828501610079565b91505092915050565b60006100c2826100c9565b9050919050565b600073ffffffffffffffffffffffffffffffffffffffff82169050919050565b6100f2816100b7565b81146100fd57600080fd5b50565b610f3a8061010f6000396000f3fe608060405234801561001057600080fd5b50600436106100415760003560e01c80630642d7e1146100465780634dd6c17e14610062578063567fdd9b14610092575b600080fd5b610060600480360381019061005b91906109fb565b6100c3565b005b61007c600480360381019061007791906109b6565b6102ff565b6040516100899190610cbe565b60405180910390f35b6100ac60048036038101906100a791906109b6565b61046c565b6040516100ba929190610c2e565b60405180910390f35b6000600160009054906101000a900473ffffffffffffffffffffffffffffffffffffffff1673ffffffffffffffffffffffffffffffffffffffff16638ec9bc6a836040518263ffffffff1660e01b81526004016101209190610c0c565b60206040518083038186803b15801561013857600080fd5b505afa15801561014c573d6000803e3d6000fd5b505050506040513d601f19601f82011682018060405250810190610170919061098d565b9050600073ffffffffffffffffffffffffffffffffffffffff168173ffffffffffffffffffffffffffffffffffffffff1614156101e2576040517f08c379a00000000000000000000000000000000000000000000000000000000081526004016101d990610c7e565b60405180910390fd5b6101ea6107f3565b83816000018190525033816020019073ffffffffffffffffffffffffffffffffffffffff16908173ffffffffffffffffffffffffffffffffffffffff16815250506000808373ffffffffffffffffffffffffffffffffffffffff1673ffffffffffffffffffffffffffffffffffffffff16815260200190815260200160002081908060018154018082558091505060019003906000526020600020906002020160009091909190915060008201518160000190805190602001906102af929190610823565b5060208201518160010160006101000a81548173ffffffffffffffffffffffffffffffffffffffff021916908373ffffffffffffffffffffffffffffffffffffffff160217905550505050505050565b600080600160009054906101000a900473ffffffffffffffffffffffffffffffffffffffff1673ffffffffffffffffffffffffffffffffffffffff16638ec9bc6a85856040518363ffffffff1660e01b815260040161035f929190610be8565b60206040518083038186803b15801561037757600080fd5b505afa15801561038b573d6000803e3d6000fd5b505050506040513d601f19601f820116820180604052508101906103af919061098d565b9050600073ffffffffffffffffffffffffffffffffffffffff168173ffffffffffffffffffffffffffffffffffffffff161415610421576040517f08c379a000000000000000000000000000000000000000000000000000000000815260040161041890610c9e565b60405180910390fd5b6000808273ffffffffffffffffffffffffffffffffffffffff1673ffffffffffffffffffffffffffffffffffffffff1681526020019081526020016000208054905091505092915050565b6060600080600160009054906101000a900473ffffffffffffffffffffffffffffffffffffffff1673ffffffffffffffffffffffffffffffffffffffff16638ec9bc6a86866040518363ffffffff1660e01b81526004016104ce929190610be8565b60206040518083038186803b1580156104e657600080fd5b505afa1580156104fa573d6000803e3d6000fd5b505050506040513d601f19601f8201168201806040525081019061051e919061098d565b9050600073ffffffffffffffffffffffffffffffffffffffff168173ffffffffffffffffffffffffffffffffffffffff161415610590576040517f08c379a000000000000000000000000000000000000000000000000000000000815260040161058790610c5e565b60405180910390fd5b60005b6000808373ffffffffffffffffffffffffffffffffffffffff1673ffffffffffffffffffffffffffffffffffffffff168152602001908152602001600020805490508110156107e9573373ffffffffffffffffffffffffffffffffffffffff166000808473ffffffffffffffffffffffffffffffffffffffff1673ffffffffffffffffffffffffffffffffffffffff1681526020019081526020016000208281548110610669577f4e487b7100000000000000000000000000000000000000000000000000000000600052603260045260246000fd5b906000526020600020906002020160010160009054906101000a900473ffffffffffffffffffffffffffffffffffffffff1673ffffffffffffffffffffffffffffffffffffffff1614156107d6576000808373ffffffffffffffffffffffffffffffffffffffff1673ffffffffffffffffffffffffffffffffffffffff168152602001908152602001600020818154811061072d577f4e487b7100000000000000000000000000000000000000000000000000000000600052603260045260246000fd5b90600052602060002090600202016000018181805461074b90610dd4565b80601f016020809104026020016040519081016040528092919081815260200182805461077790610dd4565b80156107c45780601f10610799576101008083540402835291602001916107c4565b820191906000526020600020905b8154815290600101906020018083116107a757829003601f168201915b505050505091509350935050506107ec565b80806107e190610e06565b915050610593565b50505b9250929050565b604051806040016040528060608152602001600073ffffffffffffffffffffffffffffffffffffffff1681525090565b82805461082f90610dd4565b90600052602060002090601f0160209004810192826108515760008555610898565b82601f1061086a57805160ff1916838001178555610898565b82800160010185558215610898579182015b8281111561089757825182559160200191906001019061087c565b5b5090506108a591906108a9565b5090565b5b808211156108c25760008160009055506001016108aa565b5090565b60006108d96108d484610d0a565b610cd9565b9050828152602081018484840111156108f157600080fd5b6108fc848285610d92565b509392505050565b60008151905061091381610eed565b92915050565b60008083601f84011261092b57600080fd5b8235905067ffffffffffffffff81111561094457600080fd5b60208301915083600182028301111561095c57600080fd5b9250929050565b600082601f83011261097457600080fd5b81356109848482602086016108c6565b91505092915050565b60006020828403121561099f57600080fd5b60006109ad84828501610904565b91505092915050565b600080602083850312156109c957600080fd5b600083013567ffffffffffffffff8111156109e357600080fd5b6109ef85828601610919565b92509250509250929050565b60008060408385031215610a0e57600080fd5b600083013567ffffffffffffffff811115610a2857600080fd5b610a3485828601610963565b925050602083013567ffffffffffffffff811115610a5157600080fd5b610a5d85828601610963565b9150509250929050565b6000610a738385610d45565b9350610a80838584610d92565b610a8983610edc565b840190509392505050565b6000610a9f82610d3a565b610aa98185610d45565b9350610ab9818560208601610da1565b610ac281610edc565b840191505092915050565b6000610ada601d83610d45565b91507f205468657265206973206e6f20737563682070617274792065786973740000006000830152602082019050919050565b6000610b1a603583610d45565b91507f205468657265206973206e6f2063616e64696461746520666f7220746869732060008301527f706172747920696e2074686520636f6e747261637400000000000000000000006020830152604082019050919050565b6000610b80602283610d45565b91507f204e6f2063616e64696461746520666f756e6420666f7220746869732070617260008301527f74790000000000000000000000000000000000000000000000000000000000006020830152604082019050919050565b610be281610d88565b82525050565b60006020820190508181036000830152610c03818486610a67565b90509392505050565b60006020820190508181036000830152610c268184610a94565b905092915050565b60006040820190508181036000830152610c488185610a94565b9050610c576020830184610bd9565b9392505050565b60006020820190508181036000830152610c7781610acd565b9050919050565b60006020820190508181036000830152610c9781610b0d565b9050919050565b60006020820190508181036000830152610cb781610b73565b9050919050565b6000602082019050610cd36000830184610bd9565b92915050565b6000604051905081810181811067ffffffffffffffff82111715610d0057610cff610ead565b5b8060405250919050565b600067ffffffffffffffff821115610d2557610d24610ead565b5b601f19601f8301169050602081019050919050565b600081519050919050565b600082825260208201905092915050565b6000610d6182610d68565b9050919050565b600073ffffffffffffffffffffffffffffffffffffffff82169050919050565b6000819050919050565b82818337600083830152505050565b60005b83811015610dbf578082015181840152602081019050610da4565b83811115610dce576000848401525b50505050565b60006002820490506001821680610dec57607f821691505b60208210811415610e0057610dff610e7e565b5b50919050565b6000610e1182610d88565b91507fffffffffffffffffffffffffffffffffffffffffffffffffffffffffffffffff821415610e4457610e43610e4f565b5b600182019050919050565b7f4e487b7100000000000000000000000000000000000000000000000000000000600052601160045260246000fd5b7f4e487b7100000000000000000000000000000000000000000000000000000000600052602260045260246000fd5b7f4e487b7100000000000000000000000000000000000000000000000000000000600052604160045260246000fd5b6000601f19601f8301169050919050565b610ef681610d56565b8114610f0157600080fd5b5056fea26469706673582212201fe0ffc34180c3e2a5734905c3f1af8092975217da2148e5f5df9afa65057bdd64736f6c63430008000033",
  "immutableReferences": {},
  "source": "// SPDX-License-Identifier: MIT\r\npragma solidity >=0.6.0 <0.9.0; \r\n\r\nimport './Candidate.sol';\r\n\r\ncontract Voter {\r\n    \r\n    struct VoterData\r\n    {\r\n        string nicop;\r\n        address ethereum_address;\r\n    }\r\n    \r\n    \r\n    mapping(address => VoterData[]) voters;\r\n    \r\n    Candidate candidateContract;\r\n    \r\n    \r\n    constructor(address _candidateAddress) public\r\n    {\r\n        candidateContract =  Candidate(_candidateAddress);\r\n    }\r\n    \r\n    \r\n    function insertVoteByParty(string memory national_id,string memory _party_name) public \r\n    {\r\n        \r\n        address ethereum_candidate_address = candidateContract.getCandidateAddressByPartyName(_party_name);\r\n        \r\n        require(ethereum_candidate_address != address(0),\" There is no candidate for this party in the contract\" );\r\n        \r\n        \r\n        VoterData memory vdata;\r\n        vdata.nicop = national_id;\r\n        vdata.ethereum_address = msg.sender;\r\n        \r\n        \r\n        voters[ethereum_candidate_address].push(vdata);\r\n\r\n    }\r\n    \r\n    \r\n    function getVotesByParty(string calldata _party_name) public view returns (uint total_votes)\r\n    {\r\n        address ethereum_candidate_address = candidateContract.getCandidateAddressByPartyName(_party_name);\r\n        \r\n        require(ethereum_candidate_address != address(0),\" No candidate found for this party\" );\r\n        \r\n       return voters[ethereum_candidate_address].length;\r\n   \r\n    }\r\n    \r\n    function verifyMyVote(string calldata _party_name) public view returns (string memory nicop, uint voter_index)\r\n    {\r\n     \r\n        address ethereum_candidate_address = candidateContract.getCandidateAddressByPartyName(_party_name);\r\n        \r\n        require(ethereum_candidate_address != address(0),\" There is no such party exist\" );\r\n    \r\n        for(uint loop=0;loop<voters[ethereum_candidate_address].length; loop++)\r\n        {\r\n            if(voters[ethereum_candidate_address][loop].ethereum_address == msg.sender)\r\n            {\r\n                return (voters[ethereum_candidate_address][loop].nicop, loop);\r\n            }\r\n        }\r\n    }\r\n   \r\n}",
  "sourcePath": "G:\\Alnafi\\2_Decentralized_Application_Course\\5_election_dapp\\contracts\\Voter.sol",
  "compiler": {
    "name": "solc",
    "version": "0.8.0+commit.c7dfd78e.Emscripten.clang"
  },
  "schemaVersion": "3.3.4",
  "updatedAt": "2021-06-21T17:37:54.479Z",
  "devdoc": {
    "kind": "dev",
    "methods": {},
    "version": 1
  },
  "userdoc": {
    "kind": "user",
    "methods": {},
    "version": 1
  }
}