{
  "_format": "hh-sol-artifact-1",
  "contractName": "Candidate",
  "sourceName": "contracts/Candidate.sol",
  "abi": [
    {
      "inputs": [
        {
          "internalType": "address",
          "name": "_electionCommissionAddress",
          "type": "address"
        }
      ],
      "stateMutability": "nonpayable",
      "type": "constructor"
    },
    {
      "inputs": [
        {
          "internalType": "uint256",
          "name": "",
          "type": "uint256"
        }
      ],
      "name": "candidateData",
      "outputs": [
        {
          "internalType": "string",
          "name": "fname",
          "type": "string"
        },
        {
          "internalType": "string",
          "name": "lname",
          "type": "string"
        },
        {
          "internalType": "string",
          "name": "party_name",
          "type": "string"
        },
        {
          "internalType": "string",
          "name": "party_symbol",
          "type": "string"
        },
        {
          "internalType": "address",
          "name": "ethereum_address",
          "type": "address"
        }
      ],
      "stateMutability": "view",
      "type": "function"
    },
    {
      "inputs": [
        {
          "internalType": "string",
          "name": "_party_name",
          "type": "string"
        }
      ],
      "name": "getCandidateAddressByPartyName",
      "outputs": [
        {
          "internalType": "address",
          "name": "_candidate_address",
          "type": "address"
        }
      ],
      "stateMutability": "view",
      "type": "function"
    },
    {
      "inputs": [
        {
          "internalType": "string",
          "name": "_party_name",
          "type": "string"
        }
      ],
      "name": "getCandidateDataByPartyName",
      "outputs": [
        {
          "components": [
            {
              "internalType": "string",
              "name": "fname",
              "type": "string"
            },
            {
              "internalType": "string",
              "name": "lname",
              "type": "string"
            },
            {
              "internalType": "string",
              "name": "party_name",
              "type": "string"
            },
            {
              "internalType": "string",
              "name": "party_symbol",
              "type": "string"
            },
            {
              "internalType": "address",
              "name": "ethereum_address",
              "type": "address"
            }
          ],
          "internalType": "struct Candidate.candidate_template_data",
          "name": "_candidate",
          "type": "tuple"
        }
      ],
      "stateMutability": "view",
      "type": "function"
    },
    {
      "inputs": [],
      "name": "getPartiesList",
      "outputs": [
        {
          "internalType": "string[]",
          "name": "parties",
          "type": "string[]"
        }
      ],
      "stateMutability": "view",
      "type": "function"
    },
    {
      "inputs": [
        {
          "internalType": "string",
          "name": "_fname",
          "type": "string"
        },
        {
          "internalType": "string",
          "name": "_lname",
          "type": "string"
        },
        {
          "internalType": "string",
          "name": "_party_name",
          "type": "string"
        },
        {
          "internalType": "string",
          "name": "_party_symbol",
          "type": "string"
        },
        {
          "internalType": "address",
          "name": "candidate_address",
          "type": "address"
        }
      ],
      "name": "insertCandidateData",
      "outputs": [],
      "stateMutability": "nonpayable",
      "type": "function"
    }
  ],
  "bytecode": "0x60806040523480156200001157600080fd5b5060405162001886380380620018868339818101604052810190620000379190620000e9565b80600160006101000a81548173ffffffffffffffffffffffffffffffffffffffff021916908373ffffffffffffffffffffffffffffffffffffffff160217905550506200011b565b600080fd5b600073ffffffffffffffffffffffffffffffffffffffff82169050919050565b6000620000b18262000084565b9050919050565b620000c381620000a4565b8114620000cf57600080fd5b50565b600081519050620000e381620000b8565b92915050565b6000602082840312156200010257620001016200007f565b5b60006200011284828501620000d2565b91505092915050565b61175b806200012b6000396000f3fe608060405234801561001057600080fd5b50600436106100565760003560e01c80621d51f91461005b578063318c95d91461008b57806337a811a1146100a75780638b209dcd146100c55780638ec9bc6a146100f9575b600080fd5b61007560048036038101906100709190610cbc565b610129565b6040516100829190610e65565b60405180910390f35b6100a560048036038101906100a09190610eb3565b610486565b005b6100af610763565b6040516100bc9190611071565b60405180910390f35b6100df60048036038101906100da91906110c9565b6108ad565b6040516100f095949392919061114f565b60405180910390f35b610113600480360381019061010e9190610cbc565b610b33565b60405161012091906111be565b60405180910390f35b610131610c08565b60005b60008054905081101561047e578383604051610151929190611218565b60405180910390206000828154811061016d5761016c611231565b5b906000526020600020906005020160020160405161018b9190611358565b60405180910390200361046b57600081815481106101ac576101ab611231565b5b90600052602060002090600502016040518060a00160405290816000820180546101d59061128f565b80601f01602080910402602001604051908101604052809291908181526020018280546102019061128f565b801561024e5780601f106102235761010080835404028352916020019161024e565b820191906000526020600020905b81548152906001019060200180831161023157829003601f168201915b505050505081526020016001820180546102679061128f565b80601f01602080910402602001604051908101604052809291908181526020018280546102939061128f565b80156102e05780601f106102b5576101008083540402835291602001916102e0565b820191906000526020600020905b8154815290600101906020018083116102c357829003601f168201915b505050505081526020016002820180546102f99061128f565b80601f01602080910402602001604051908101604052809291908181526020018280546103259061128f565b80156103725780601f1061034757610100808354040283529160200191610372565b820191906000526020600020905b81548152906001019060200180831161035557829003601f168201915b5050505050815260200160038201805461038b9061128f565b80601f01602080910402602001604051908101604052809291908181526020018280546103b79061128f565b80156104045780601f106103d957610100808354040283529160200191610404565b820191906000526020600020905b8154815290600101906020018083116103e757829003601f168201915b505050505081526020016004820160009054906101000a900473ffffffffffffffffffffffffffffffffffffffff1673ffffffffffffffffffffffffffffffffffffffff1673ffffffffffffffffffffffffffffffffffffffff1681525050915050610480565b80806104769061139e565b915050610134565b505b92915050565b600160009054906101000a900473ffffffffffffffffffffffffffffffffffffffff1673ffffffffffffffffffffffffffffffffffffffff163373ffffffffffffffffffffffffffffffffffffffff1614610516576040517f08c379a000000000000000000000000000000000000000000000000000000000815260040161050d90611458565b60405180910390fd5b61051e610c08565b89898080601f016020809104026020016040519081016040528093929190818152602001838380828437600081840152601f19601f82011690508083019250505050505050816000018190525087878080601f016020809104026020016040519081016040528093929190818152602001838380828437600081840152601f19601f82011690508083019250505050505050816020018190525083838080601f016020809104026020016040519081016040528093929190818152602001838380828437600081840152601f19601f82011690508083019250505050505050816060018190525085858080601f016020809104026020016040519081016040528093929190818152602001838380828437600081840152601f19601f82011690508083019250505050505050816040018190525081816080019073ffffffffffffffffffffffffffffffffffffffff16908173ffffffffffffffffffffffffffffffffffffffff1681525050600081908060018154018082558091505060019003906000526020600020906005020160009091909190915060008201518160000190816106cb9190611653565b5060208201518160010190816106e19190611653565b5060408201518160020190816106f79190611653565b50606082015181600301908161070d9190611653565b5060808201518160040160006101000a81548173ffffffffffffffffffffffffffffffffffffffff021916908373ffffffffffffffffffffffffffffffffffffffff160217905550505050505050505050505050565b606060008054905067ffffffffffffffff81111561078457610783611478565b5b6040519080825280602002602001820160405280156107b757816020015b60608152602001906001900390816107a25790505b50905060005b6000805490508110156108a957600081815481106107de576107dd611231565b5b906000526020600020906005020160020180546107fa9061128f565b80601f01602080910402602001604051908101604052809291908181526020018280546108269061128f565b80156108735780601f1061084857610100808354040283529160200191610873565b820191906000526020600020905b81548152906001019060200180831161085657829003601f168201915b505050505082828151811061088b5761088a611231565b5b602002602001018190525080806108a19061139e565b9150506107bd565b5090565b600081815481106108bd57600080fd5b90600052602060002090600502016000915090508060000180546108e09061128f565b80601f016020809104026020016040519081016040528092919081815260200182805461090c9061128f565b80156109595780601f1061092e57610100808354040283529160200191610959565b820191906000526020600020905b81548152906001019060200180831161093c57829003601f168201915b50505050509080600101805461096e9061128f565b80601f016020809104026020016040519081016040528092919081815260200182805461099a9061128f565b80156109e75780601f106109bc576101008083540402835291602001916109e7565b820191906000526020600020905b8154815290600101906020018083116109ca57829003601f168201915b5050505050908060020180546109fc9061128f565b80601f0160208091040260200160405190810160405280929190818152602001828054610a289061128f565b8015610a755780601f10610a4a57610100808354040283529160200191610a75565b820191906000526020600020905b815481529060010190602001808311610a5857829003601f168201915b505050505090806003018054610a8a9061128f565b80601f0160208091040260200160405190810160405280929190818152602001828054610ab69061128f565b8015610b035780601f10610ad857610100808354040283529160200191610b03565b820191906000526020600020905b815481529060010190602001808311610ae657829003601f168201915b5050505050908060040160009054906101000a900473ffffffffffffffffffffffffffffffffffffffff16905085565b600080600090505b600080549050811015610c00578383604051610b58929190611218565b604051809103902060008281548110610b7457610b73611231565b5b9060005260206000209060050201600201604051610b929190611358565b604051809103902003610bed5760008181548110610bb357610bb2611231565b5b906000526020600020906005020160040160009054906101000a900473ffffffffffffffffffffffffffffffffffffffff16915050610c02565b8080610bf89061139e565b915050610b3b565b505b92915050565b6040518060a0016040528060608152602001606081526020016060815260200160608152602001600073ffffffffffffffffffffffffffffffffffffffff1681525090565b600080fd5b600080fd5b600080fd5b600080fd5b600080fd5b60008083601f840112610c7c57610c7b610c57565b5b8235905067ffffffffffffffff811115610c9957610c98610c5c565b5b602083019150836001820283011115610cb557610cb4610c61565b5b9250929050565b60008060208385031215610cd357610cd2610c4d565b5b600083013567ffffffffffffffff811115610cf157610cf0610c52565b5b610cfd85828601610c66565b92509250509250929050565b600081519050919050565b600082825260208201905092915050565b60005b83811015610d43578082015181840152602081019050610d28565b60008484015250505050565b6000601f19601f8301169050919050565b6000610d6b82610d09565b610d758185610d14565b9350610d85818560208601610d25565b610d8e81610d4f565b840191505092915050565b600073ffffffffffffffffffffffffffffffffffffffff82169050919050565b6000610dc482610d99565b9050919050565b610dd481610db9565b82525050565b600060a0830160008301518482036000860152610df78282610d60565b91505060208301518482036020860152610e118282610d60565b91505060408301518482036040860152610e2b8282610d60565b91505060608301518482036060860152610e458282610d60565b9150506080830151610e5a6080860182610dcb565b508091505092915050565b60006020820190508181036000830152610e7f8184610dda565b905092915050565b610e9081610db9565b8114610e9b57600080fd5b50565b600081359050610ead81610e87565b92915050565b600080600080600080600080600060a08a8c031215610ed557610ed4610c4d565b5b60008a013567ffffffffffffffff811115610ef357610ef2610c52565b5b610eff8c828d01610c66565b995099505060208a013567ffffffffffffffff811115610f2257610f21610c52565b5b610f2e8c828d01610c66565b975097505060408a013567ffffffffffffffff811115610f5157610f50610c52565b5b610f5d8c828d01610c66565b955095505060608a013567ffffffffffffffff811115610f8057610f7f610c52565b5b610f8c8c828d01610c66565b93509350506080610f9f8c828d01610e9e565b9150509295985092959850929598565b600081519050919050565b600082825260208201905092915050565b6000819050602082019050919050565b6000610fe78383610d60565b905092915050565b6000602082019050919050565b600061100782610faf565b6110118185610fba565b93508360208202850161102385610fcb565b8060005b8581101561105f57848403895281516110408582610fdb565b945061104b83610fef565b925060208a01995050600181019050611027565b50829750879550505050505092915050565b6000602082019050818103600083015261108b8184610ffc565b905092915050565b6000819050919050565b6110a681611093565b81146110b157600080fd5b50565b6000813590506110c38161109d565b92915050565b6000602082840312156110df576110de610c4d565b5b60006110ed848285016110b4565b91505092915050565b600082825260208201905092915050565b600061111282610d09565b61111c81856110f6565b935061112c818560208601610d25565b61113581610d4f565b840191505092915050565b61114981610db9565b82525050565b600060a08201905081810360008301526111698188611107565b9050818103602083015261117d8187611107565b905081810360408301526111918186611107565b905081810360608301526111a58185611107565b90506111b46080830184611140565b9695505050505050565b60006020820190506111d36000830184611140565b92915050565b600081905092915050565b82818337600083830152505050565b60006111ff83856111d9565b935061120c8385846111e4565b82840190509392505050565b60006112258284866111f3565b91508190509392505050565b7f4e487b7100000000000000000000000000000000000000000000000000000000600052603260045260246000fd5b7f4e487b7100000000000000000000000000000000000000000000000000000000600052602260045260246000fd5b600060028204905060018216806112a757607f821691505b6020821081036112ba576112b9611260565b5b50919050565b60008190508160005260206000209050919050565b600081546112e28161128f565b6112ec81866111d9565b94506001821660008114611307576001811461131c5761134f565b60ff198316865281151582028601935061134f565b611325856112c0565b60005b8381101561134757815481890152600182019150602081019050611328565b838801955050505b50505092915050565b600061136482846112d5565b915081905092915050565b7f4e487b7100000000000000000000000000000000000000000000000000000000600052601160045260246000fd5b60006113a982611093565b91507fffffffffffffffffffffffffffffffffffffffffffffffffffffffffffffffff82036113db576113da61136f565b5b600182019050919050565b7f496e636f6d696e672063616c6c206973206e6f742066726f6d20456c6563746960008201527f6f6e20436f6d6d697373696f6e277320636f6e74726163740000000000000000602082015250565b60006114426038836110f6565b915061144d826113e6565b604082019050919050565b6000602082019050818103600083015261147181611435565b9050919050565b7f4e487b7100000000000000000000000000000000000000000000000000000000600052604160045260246000fd5b60008190508160005260206000209050919050565b60006020601f8301049050919050565b600082821b905092915050565b6000600883026115097fffffffffffffffffffffffffffffffffffffffffffffffffffffffffffffffff826114cc565b61151386836114cc565b95508019841693508086168417925050509392505050565b6000819050919050565b600061155061154b61154684611093565b61152b565b611093565b9050919050565b6000819050919050565b61156a83611535565b61157e61157682611557565b8484546114d9565b825550505050565b600090565b611593611586565b61159e818484611561565b505050565b5b818110156115c2576115b760008261158b565b6001810190506115a4565b5050565b601f821115611607576115d8816114a7565b6115e1846114bc565b810160208510156115f0578190505b6116046115fc856114bc565b8301826115a3565b50505b505050565b600082821c905092915050565b600061162a6000198460080261160c565b1980831691505092915050565b60006116438383611619565b9150826002028217905092915050565b61165c82610d09565b67ffffffffffffffff81111561167557611674611478565b5b61167f825461128f565b61168a8282856115c6565b600060209050601f8311600181146116bd57600084156116ab578287015190505b6116b58582611637565b86555061171d565b601f1984166116cb866114a7565b60005b828110156116f3578489015182556001820191506020850194506020810190506116ce565b86831015611710578489015161170c601f891682611619565b8355505b6001600288020188555050505b50505050505056fea264697066735822122044b2e74178cc58f73db6d1070e6edc8e1425e9624c77ce12cf8c1ae31482e0d264736f6c63430008130033",
  "linkReferences": {},
  "deployedLinkReferences": {}
}