{
  "_format": "hh-sol-artifact-1",
  "contractName": "ElectionCommission",
  "sourceName": "contracts/ElectionCommission.sol",
  "abi": [
    {
      "inputs": [],
      "stateMutability": "nonpayable",
      "type": "constructor"
    },
    {
      "inputs": [],
      "name": "getCandidateContractAddress",
      "outputs": [
        {
          "internalType": "address",
          "name": "candidateContractAddress",
          "type": "address"
        }
      ],
      "stateMutability": "view",
      "type": "function"
    },
    {
      "inputs": [],
      "name": "getVoterContractAddress",
      "outputs": [
        {
          "internalType": "address",
          "name": "voterContractAddress",
          "type": "address"
        }
      ],
      "stateMutability": "view",
      "type": "function"
    },
    {
      "inputs": [
        {
          "internalType": "string",
          "name": "_fname",
          "type": "string"
        },
        {
          "internalType": "string",
          "name": "_lname",
          "type": "string"
        },
        {
          "internalType": "string",
          "name": "_party_name",
          "type": "string"
        },
        {
          "internalType": "string",
          "name": "_party_symbol",
          "type": "string"
        },
        {
          "internalType": "address",
          "name": "candidate_address",
          "type": "address"
        }
      ],
      "name": "insertNewCandidate",
      "outputs": [],
      "stateMutability": "nonpayable",
      "type": "function"
    }
  ],
  "bytecode": "0x608060405234801561001057600080fd5b50336000806101000a81548173ffffffffffffffffffffffffffffffffffffffff021916908373ffffffffffffffffffffffffffffffffffffffff1602179055503060405161005e90610160565b61006891906101bb565b604051809103906000f080158015610084573d6000803e3d6000fd5b50600160006101000a81548173ffffffffffffffffffffffffffffffffffffffff021916908373ffffffffffffffffffffffffffffffffffffffff160217905550600160009054906101000a900473ffffffffffffffffffffffffffffffffffffffff166040516100f49061016d565b6100fe91906101bb565b604051809103906000f08015801561011a573d6000803e3d6000fd5b50600260006101000a81548173ffffffffffffffffffffffffffffffffffffffff021916908373ffffffffffffffffffffffffffffffffffffffff1602179055506101d6565b6118868061079d83390190565b6112748061202383390190565b600073ffffffffffffffffffffffffffffffffffffffff82169050919050565b60006101a58261017a565b9050919050565b6101b58161019a565b82525050565b60006020820190506101d060008301846101ac565b92915050565b6105b8806101e56000396000f3fe608060405234801561001057600080fd5b50600436106100415760003560e01c806306a28b5114610046578063680f318c14610062578063c5ce8bcf14610080575b600080fd5b610060600480360381019061005b91906102f5565b61009e565b005b61006a6101d4565b6040516100779190610400565b60405180910390f35b6100886101fe565b6040516100959190610400565b60405180910390f35b60008054906101000a900473ffffffffffffffffffffffffffffffffffffffff1673ffffffffffffffffffffffffffffffffffffffff163373ffffffffffffffffffffffffffffffffffffffff161461012c576040517f08c379a00000000000000000000000000000000000000000000000000000000081526004016101239061049e565b60405180910390fd5b600160009054906101000a900473ffffffffffffffffffffffffffffffffffffffff1673ffffffffffffffffffffffffffffffffffffffff1663318c95d98a8a8a8a8a8a8a8a8a6040518a63ffffffff1660e01b81526004016101979998979695949392919061050b565b600060405180830381600087803b1580156101b157600080fd5b505af11580156101c5573d6000803e3d6000fd5b50505050505050505050505050565b6000600160009054906101000a900473ffffffffffffffffffffffffffffffffffffffff16905090565b6000600260009054906101000a900473ffffffffffffffffffffffffffffffffffffffff16905090565b600080fd5b600080fd5b600080fd5b600080fd5b600080fd5b60008083601f84011261025757610256610232565b5b8235905067ffffffffffffffff81111561027457610273610237565b5b6020830191508360018202830111156102905761028f61023c565b5b9250929050565b600073ffffffffffffffffffffffffffffffffffffffff82169050919050565b60006102c282610297565b9050919050565b6102d2816102b7565b81146102dd57600080fd5b50565b6000813590506102ef816102c9565b92915050565b600080600080600080600080600060a08a8c03121561031757610316610228565b5b60008a013567ffffffffffffffff8111156103355761033461022d565b5b6103418c828d01610241565b995099505060208a013567ffffffffffffffff8111156103645761036361022d565b5b6103708c828d01610241565b975097505060408a013567ffffffffffffffff8111156103935761039261022d565b5b61039f8c828d01610241565b955095505060608a013567ffffffffffffffff8111156103c2576103c161022d565b5b6103ce8c828d01610241565b935093505060806103e18c828d016102e0565b9150509295985092959850929598565b6103fa816102b7565b82525050565b600060208201905061041560008301846103f1565b92915050565b600082825260208201905092915050565b7f20596f7520617265206e6f7420616e2061646d696e6973747261746f72206f6660008201527f207468697320636f6e7472616374000000000000000000000000000000000000602082015250565b6000610488602e8361041b565b91506104938261042c565b604082019050919050565b600060208201905081810360008301526104b78161047b565b9050919050565b82818337600083830152505050565b6000601f19601f8301169050919050565b60006104ea838561041b565b93506104f78385846104be565b610500836104cd565b840190509392505050565b600060a0820190508181036000830152610526818b8d6104de565b9050818103602083015261053b81898b6104de565b905081810360408301526105508187896104de565b905081810360608301526105658185876104de565b905061057460808301846103f1565b9a995050505050505050505056fea264697066735822122009445925a234ed832dc75dfe5ccc06f0087a296c0622bb7588d15630a01fa2af64736f6c6343000813003360806040523480156200001157600080fd5b5060405162001886380380620018868339818101604052810190620000379190620000e9565b80600160006101000a81548173ffffffffffffffffffffffffffffffffffffffff021916908373ffffffffffffffffffffffffffffffffffffffff160217905550506200011b565b600080fd5b600073ffffffffffffffffffffffffffffffffffffffff82169050919050565b6000620000b18262000084565b9050919050565b620000c381620000a4565b8114620000cf57600080fd5b50565b600081519050620000e381620000b8565b92915050565b6000602082840312156200010257620001016200007f565b5b60006200011284828501620000d2565b91505092915050565b61175b806200012b6000396000f3fe608060405234801561001057600080fd5b50600436106100565760003560e01c80621d51f91461005b578063318c95d91461008b57806337a811a1146100a75780638b209dcd146100c55780638ec9bc6a146100f9575b600080fd5b61007560048036038101906100709190610cbc565b610129565b6040516100829190610e65565b60405180910390f35b6100a560048036038101906100a09190610eb3565b610486565b005b6100af610763565b6040516100bc9190611071565b60405180910390f35b6100df60048036038101906100da91906110c9565b6108ad565b6040516100f095949392919061114f565b60405180910390f35b610113600480360381019061010e9190610cbc565b610b33565b60405161012091906111be565b60405180910390f35b610131610c08565b60005b60008054905081101561047e578383604051610151929190611218565b60405180910390206000828154811061016d5761016c611231565b5b906000526020600020906005020160020160405161018b9190611358565b60405180910390200361046b57600081815481106101ac576101ab611231565b5b90600052602060002090600502016040518060a00160405290816000820180546101d59061128f565b80601f01602080910402602001604051908101604052809291908181526020018280546102019061128f565b801561024e5780601f106102235761010080835404028352916020019161024e565b820191906000526020600020905b81548152906001019060200180831161023157829003601f168201915b505050505081526020016001820180546102679061128f565b80601f01602080910402602001604051908101604052809291908181526020018280546102939061128f565b80156102e05780601f106102b5576101008083540402835291602001916102e0565b820191906000526020600020905b8154815290600101906020018083116102c357829003601f168201915b505050505081526020016002820180546102f99061128f565b80601f01602080910402602001604051908101604052809291908181526020018280546103259061128f565b80156103725780601f1061034757610100808354040283529160200191610372565b820191906000526020600020905b81548152906001019060200180831161035557829003601f168201915b5050505050815260200160038201805461038b9061128f565b80601f01602080910402602001604051908101604052809291908181526020018280546103b79061128f565b80156104045780601f106103d957610100808354040283529160200191610404565b820191906000526020600020905b8154815290600101906020018083116103e757829003601f168201915b505050505081526020016004820160009054906101000a900473ffffffffffffffffffffffffffffffffffffffff1673ffffffffffffffffffffffffffffffffffffffff1673ffffffffffffffffffffffffffffffffffffffff1681525050915050610480565b80806104769061139e565b915050610134565b505b92915050565b600160009054906101000a900473ffffffffffffffffffffffffffffffffffffffff1673ffffffffffffffffffffffffffffffffffffffff163373ffffffffffffffffffffffffffffffffffffffff1614610516576040517f08c379a000000000000000000000000000000000000000000000000000000000815260040161050d90611458565b60405180910390fd5b61051e610c08565b89898080601f016020809104026020016040519081016040528093929190818152602001838380828437600081840152601f19601f82011690508083019250505050505050816000018190525087878080601f016020809104026020016040519081016040528093929190818152602001838380828437600081840152601f19601f82011690508083019250505050505050816020018190525083838080601f016020809104026020016040519081016040528093929190818152602001838380828437600081840152601f19601f82011690508083019250505050505050816060018190525085858080601f016020809104026020016040519081016040528093929190818152602001838380828437600081840152601f19601f82011690508083019250505050505050816040018190525081816080019073ffffffffffffffffffffffffffffffffffffffff16908173ffffffffffffffffffffffffffffffffffffffff1681525050600081908060018154018082558091505060019003906000526020600020906005020160009091909190915060008201518160000190816106cb9190611653565b5060208201518160010190816106e19190611653565b5060408201518160020190816106f79190611653565b50606082015181600301908161070d9190611653565b5060808201518160040160006101000a81548173ffffffffffffffffffffffffffffffffffffffff021916908373ffffffffffffffffffffffffffffffffffffffff160217905550505050505050505050505050565b606060008054905067ffffffffffffffff81111561078457610783611478565b5b6040519080825280602002602001820160405280156107b757816020015b60608152602001906001900390816107a25790505b50905060005b6000805490508110156108a957600081815481106107de576107dd611231565b5b906000526020600020906005020160020180546107fa9061128f565b80601f01602080910402602001604051908101604052809291908181526020018280546108269061128f565b80156108735780601f1061084857610100808354040283529160200191610873565b820191906000526020600020905b81548152906001019060200180831161085657829003601f168201915b505050505082828151811061088b5761088a611231565b5b602002602001018190525080806108a19061139e565b9150506107bd565b5090565b600081815481106108bd57600080fd5b90600052602060002090600502016000915090508060000180546108e09061128f565b80601f016020809104026020016040519081016040528092919081815260200182805461090c9061128f565b80156109595780601f1061092e57610100808354040283529160200191610959565b820191906000526020600020905b81548152906001019060200180831161093c57829003601f168201915b50505050509080600101805461096e9061128f565b80601f016020809104026020016040519081016040528092919081815260200182805461099a9061128f565b80156109e75780601f106109bc576101008083540402835291602001916109e7565b820191906000526020600020905b8154815290600101906020018083116109ca57829003601f168201915b5050505050908060020180546109fc9061128f565b80601f0160208091040260200160405190810160405280929190818152602001828054610a289061128f565b8015610a755780601f10610a4a57610100808354040283529160200191610a75565b820191906000526020600020905b815481529060010190602001808311610a5857829003601f168201915b505050505090806003018054610a8a9061128f565b80601f0160208091040260200160405190810160405280929190818152602001828054610ab69061128f565b8015610b035780601f10610ad857610100808354040283529160200191610b03565b820191906000526020600020905b815481529060010190602001808311610ae657829003601f168201915b5050505050908060040160009054906101000a900473ffffffffffffffffffffffffffffffffffffffff16905085565b600080600090505b600080549050811015610c00578383604051610b58929190611218565b604051809103902060008281548110610b7457610b73611231565b5b9060005260206000209060050201600201604051610b929190611358565b604051809103902003610bed5760008181548110610bb357610bb2611231565b5b906000526020600020906005020160040160009054906101000a900473ffffffffffffffffffffffffffffffffffffffff16915050610c02565b8080610bf89061139e565b915050610b3b565b505b92915050565b6040518060a0016040528060608152602001606081526020016060815260200160608152602001600073ffffffffffffffffffffffffffffffffffffffff1681525090565b600080fd5b600080fd5b600080fd5b600080fd5b600080fd5b60008083601f840112610c7c57610c7b610c57565b5b8235905067ffffffffffffffff811115610c9957610c98610c5c565b5b602083019150836001820283011115610cb557610cb4610c61565b5b9250929050565b60008060208385031215610cd357610cd2610c4d565b5b600083013567ffffffffffffffff811115610cf157610cf0610c52565b5b610cfd85828601610c66565b92509250509250929050565b600081519050919050565b600082825260208201905092915050565b60005b83811015610d43578082015181840152602081019050610d28565b60008484015250505050565b6000601f19601f8301169050919050565b6000610d6b82610d09565b610d758185610d14565b9350610d85818560208601610d25565b610d8e81610d4f565b840191505092915050565b600073ffffffffffffffffffffffffffffffffffffffff82169050919050565b6000610dc482610d99565b9050919050565b610dd481610db9565b82525050565b600060a0830160008301518482036000860152610df78282610d60565b91505060208301518482036020860152610e118282610d60565b91505060408301518482036040860152610e2b8282610d60565b91505060608301518482036060860152610e458282610d60565b9150506080830151610e5a6080860182610dcb565b508091505092915050565b60006020820190508181036000830152610e7f8184610dda565b905092915050565b610e9081610db9565b8114610e9b57600080fd5b50565b600081359050610ead81610e87565b92915050565b600080600080600080600080600060a08a8c031215610ed557610ed4610c4d565b5b60008a013567ffffffffffffffff811115610ef357610ef2610c52565b5b610eff8c828d01610c66565b995099505060208a013567ffffffffffffffff811115610f2257610f21610c52565b5b610f2e8c828d01610c66565b975097505060408a013567ffffffffffffffff811115610f5157610f50610c52565b5b610f5d8c828d01610c66565b955095505060608a013567ffffffffffffffff811115610f8057610f7f610c52565b5b610f8c8c828d01610c66565b93509350506080610f9f8c828d01610e9e565b9150509295985092959850929598565b600081519050919050565b600082825260208201905092915050565b6000819050602082019050919050565b6000610fe78383610d60565b905092915050565b6000602082019050919050565b600061100782610faf565b6110118185610fba565b93508360208202850161102385610fcb565b8060005b8581101561105f57848403895281516110408582610fdb565b945061104b83610fef565b925060208a01995050600181019050611027565b50829750879550505050505092915050565b6000602082019050818103600083015261108b8184610ffc565b905092915050565b6000819050919050565b6110a681611093565b81146110b157600080fd5b50565b6000813590506110c38161109d565b92915050565b6000602082840312156110df576110de610c4d565b5b60006110ed848285016110b4565b91505092915050565b600082825260208201905092915050565b600061111282610d09565b61111c81856110f6565b935061112c818560208601610d25565b61113581610d4f565b840191505092915050565b61114981610db9565b82525050565b600060a08201905081810360008301526111698188611107565b9050818103602083015261117d8187611107565b905081810360408301526111918186611107565b905081810360608301526111a58185611107565b90506111b46080830184611140565b9695505050505050565b60006020820190506111d36000830184611140565b92915050565b600081905092915050565b82818337600083830152505050565b60006111ff83856111d9565b935061120c8385846111e4565b82840190509392505050565b60006112258284866111f3565b91508190509392505050565b7f4e487b7100000000000000000000000000000000000000000000000000000000600052603260045260246000fd5b7f4e487b7100000000000000000000000000000000000000000000000000000000600052602260045260246000fd5b600060028204905060018216806112a757607f821691505b6020821081036112ba576112b9611260565b5b50919050565b60008190508160005260206000209050919050565b600081546112e28161128f565b6112ec81866111d9565b94506001821660008114611307576001811461131c5761134f565b60ff198316865281151582028601935061134f565b611325856112c0565b60005b8381101561134757815481890152600182019150602081019050611328565b838801955050505b50505092915050565b600061136482846112d5565b915081905092915050565b7f4e487b7100000000000000000000000000000000000000000000000000000000600052601160045260246000fd5b60006113a982611093565b91507fffffffffffffffffffffffffffffffffffffffffffffffffffffffffffffffff82036113db576113da61136f565b5b600182019050919050565b7f496e636f6d696e672063616c6c206973206e6f742066726f6d20456c6563746960008201527f6f6e20436f6d6d697373696f6e277320636f6e74726163740000000000000000602082015250565b60006114426038836110f6565b915061144d826113e6565b604082019050919050565b6000602082019050818103600083015261147181611435565b9050919050565b7f4e487b7100000000000000000000000000000000000000000000000000000000600052604160045260246000fd5b60008190508160005260206000209050919050565b60006020601f8301049050919050565b600082821b905092915050565b6000600883026115097fffffffffffffffffffffffffffffffffffffffffffffffffffffffffffffffff826114cc565b61151386836114cc565b95508019841693508086168417925050509392505050565b6000819050919050565b600061155061154b61154684611093565b61152b565b611093565b9050919050565b6000819050919050565b61156a83611535565b61157e61157682611557565b8484546114d9565b825550505050565b600090565b611593611586565b61159e818484611561565b505050565b5b818110156115c2576115b760008261158b565b6001810190506115a4565b5050565b601f821115611607576115d8816114a7565b6115e1846114bc565b810160208510156115f0578190505b6116046115fc856114bc565b8301826115a3565b50505b505050565b600082821c905092915050565b600061162a6000198460080261160c565b1980831691505092915050565b60006116438383611619565b9150826002028217905092915050565b61165c82610d09565b67ffffffffffffffff81111561167557611674611478565b5b61167f825461128f565b61168a8282856115c6565b600060209050601f8311600181146116bd57600084156116ab578287015190505b6116b58582611637565b86555061171d565b601f1984166116cb866114a7565b60005b828110156116f3578489015182556001820191506020850194506020810190506116ce565b86831015611710578489015161170c601f891682611619565b8355505b6001600288020188555050505b50505050505056fea264697066735822122044b2e74178cc58f73db6d1070e6edc8e1425e9624c77ce12cf8c1ae31482e0d264736f6c6343000813003360806040523480156200001157600080fd5b5060405162001274380380620012748339818101604052810190620000379190620000e9565b80600160006101000a81548173ffffffffffffffffffffffffffffffffffffffff021916908373ffffffffffffffffffffffffffffffffffffffff160217905550506200011b565b600080fd5b600073ffffffffffffffffffffffffffffffffffffffff82169050919050565b6000620000b18262000084565b9050919050565b620000c381620000a4565b8114620000cf57600080fd5b50565b600081519050620000e381620000b8565b92915050565b6000602082840312156200010257620001016200007f565b5b60006200011284828501620000d2565b91505092915050565b611149806200012b6000396000f3fe608060405234801561001057600080fd5b50600436106100415760003560e01c80630642d7e1146100465780634dd6c17e14610062578063567fdd9b14610092575b600080fd5b610060600480360381019061005b91906108f9565b6100c3565b005b61007c600480360381019061007791906109d1565b6102e8565b6040516100899190610a37565b60405180910390f35b6100ac60048036038101906100a791906109d1565b610445565b6040516100ba929190610ad1565b60405180910390f35b6000600160009054906101000a900473ffffffffffffffffffffffffffffffffffffffff1673ffffffffffffffffffffffffffffffffffffffff16638ec9bc6a836040518263ffffffff1660e01b81526004016101209190610b01565b602060405180830381865afa15801561013d573d6000803e3d6000fd5b505050506040513d601f19601f820116820180604052508101906101619190610b81565b9050600073ffffffffffffffffffffffffffffffffffffffff168173ffffffffffffffffffffffffffffffffffffffff16036101d2576040517f08c379a00000000000000000000000000000000000000000000000000000000081526004016101c990610c20565b60405180910390fd5b6101da61076f565b83816000018190525033816020019073ffffffffffffffffffffffffffffffffffffffff16908173ffffffffffffffffffffffffffffffffffffffff16815250506000808373ffffffffffffffffffffffffffffffffffffffff1673ffffffffffffffffffffffffffffffffffffffff16815260200190815260200160002081908060018154018082558091505060019003906000526020600020906002020160009091909190915060008201518160000190816102989190610e4c565b5060208201518160010160006101000a81548173ffffffffffffffffffffffffffffffffffffffff021916908373ffffffffffffffffffffffffffffffffffffffff160217905550505050505050565b600080600160009054906101000a900473ffffffffffffffffffffffffffffffffffffffff1673ffffffffffffffffffffffffffffffffffffffff16638ec9bc6a85856040518363ffffffff1660e01b8152600401610348929190610f4b565b602060405180830381865afa158015610365573d6000803e3d6000fd5b505050506040513d601f19601f820116820180604052508101906103899190610b81565b9050600073ffffffffffffffffffffffffffffffffffffffff168173ffffffffffffffffffffffffffffffffffffffff16036103fa576040517f08c379a00000000000000000000000000000000000000000000000000000000081526004016103f190610fe1565b60405180910390fd5b6000808273ffffffffffffffffffffffffffffffffffffffff1673ffffffffffffffffffffffffffffffffffffffff1681526020019081526020016000208054905091505092915050565b6060600080600160009054906101000a900473ffffffffffffffffffffffffffffffffffffffff1673ffffffffffffffffffffffffffffffffffffffff16638ec9bc6a86866040518363ffffffff1660e01b81526004016104a7929190610f4b565b602060405180830381865afa1580156104c4573d6000803e3d6000fd5b505050506040513d601f19601f820116820180604052508101906104e89190610b81565b9050600073ffffffffffffffffffffffffffffffffffffffff168173ffffffffffffffffffffffffffffffffffffffff1603610559576040517f08c379a00000000000000000000000000000000000000000000000000000000081526004016105509061104d565b60405180910390fd5b60005b6000808373ffffffffffffffffffffffffffffffffffffffff1673ffffffffffffffffffffffffffffffffffffffff16815260200190815260200160002080549050811015610765573373ffffffffffffffffffffffffffffffffffffffff166000808473ffffffffffffffffffffffffffffffffffffffff1673ffffffffffffffffffffffffffffffffffffffff168152602001908152602001600020828154811061060c5761060b61106d565b5b906000526020600020906002020160010160009054906101000a900473ffffffffffffffffffffffffffffffffffffffff1673ffffffffffffffffffffffffffffffffffffffff1603610752576000808373ffffffffffffffffffffffffffffffffffffffff1673ffffffffffffffffffffffffffffffffffffffff16815260200190815260200160002081815481106106a9576106a861106d565b5b9060005260206000209060020201600001818180546106c790610c6f565b80601f01602080910402602001604051908101604052809291908181526020018280546106f390610c6f565b80156107405780601f1061071557610100808354040283529160200191610740565b820191906000526020600020905b81548152906001019060200180831161072357829003601f168201915b50505050509150935093505050610768565b808061075d906110cb565b91505061055c565b50505b9250929050565b604051806040016040528060608152602001600073ffffffffffffffffffffffffffffffffffffffff1681525090565b6000604051905090565b600080fd5b600080fd5b600080fd5b600080fd5b6000601f19601f8301169050919050565b7f4e487b7100000000000000000000000000000000000000000000000000000000600052604160045260246000fd5b610806826107bd565b810181811067ffffffffffffffff82111715610825576108246107ce565b5b80604052505050565b600061083861079f565b905061084482826107fd565b919050565b600067ffffffffffffffff821115610864576108636107ce565b5b61086d826107bd565b9050602081019050919050565b82818337600083830152505050565b600061089c61089784610849565b61082e565b9050828152602081018484840111156108b8576108b76107b8565b5b6108c384828561087a565b509392505050565b600082601f8301126108e0576108df6107b3565b5b81356108f0848260208601610889565b91505092915050565b600080604083850312156109105761090f6107a9565b5b600083013567ffffffffffffffff81111561092e5761092d6107ae565b5b61093a858286016108cb565b925050602083013567ffffffffffffffff81111561095b5761095a6107ae565b5b610967858286016108cb565b9150509250929050565b600080fd5b600080fd5b60008083601f840112610991576109906107b3565b5b8235905067ffffffffffffffff8111156109ae576109ad610971565b5b6020830191508360018202830111156109ca576109c9610976565b5b9250929050565b600080602083850312156109e8576109e76107a9565b5b600083013567ffffffffffffffff811115610a0657610a056107ae565b5b610a128582860161097b565b92509250509250929050565b6000819050919050565b610a3181610a1e565b82525050565b6000602082019050610a4c6000830184610a28565b92915050565b600081519050919050565b600082825260208201905092915050565b60005b83811015610a8c578082015181840152602081019050610a71565b60008484015250505050565b6000610aa382610a52565b610aad8185610a5d565b9350610abd818560208601610a6e565b610ac6816107bd565b840191505092915050565b60006040820190508181036000830152610aeb8185610a98565b9050610afa6020830184610a28565b9392505050565b60006020820190508181036000830152610b1b8184610a98565b905092915050565b600073ffffffffffffffffffffffffffffffffffffffff82169050919050565b6000610b4e82610b23565b9050919050565b610b5e81610b43565b8114610b6957600080fd5b50565b600081519050610b7b81610b55565b92915050565b600060208284031215610b9757610b966107a9565b5b6000610ba584828501610b6c565b91505092915050565b7f205468657265206973206e6f2063616e64696461746520666f7220746869732060008201527f706172747920696e2074686520636f6e74726163740000000000000000000000602082015250565b6000610c0a603583610a5d565b9150610c1582610bae565b604082019050919050565b60006020820190508181036000830152610c3981610bfd565b9050919050565b7f4e487b7100000000000000000000000000000000000000000000000000000000600052602260045260246000fd5b60006002820490506001821680610c8757607f821691505b602082108103610c9a57610c99610c40565b5b50919050565b60008190508160005260206000209050919050565b60006020601f8301049050919050565b600082821b905092915050565b600060088302610d027fffffffffffffffffffffffffffffffffffffffffffffffffffffffffffffffff82610cc5565b610d0c8683610cc5565b95508019841693508086168417925050509392505050565b6000819050919050565b6000610d49610d44610d3f84610a1e565b610d24565b610a1e565b9050919050565b6000819050919050565b610d6383610d2e565b610d77610d6f82610d50565b848454610cd2565b825550505050565b600090565b610d8c610d7f565b610d97818484610d5a565b505050565b5b81811015610dbb57610db0600082610d84565b600181019050610d9d565b5050565b601f821115610e0057610dd181610ca0565b610dda84610cb5565b81016020851015610de9578190505b610dfd610df585610cb5565b830182610d9c565b50505b505050565b600082821c905092915050565b6000610e2360001984600802610e05565b1980831691505092915050565b6000610e3c8383610e12565b9150826002028217905092915050565b610e5582610a52565b67ffffffffffffffff811115610e6e57610e6d6107ce565b5b610e788254610c6f565b610e83828285610dbf565b600060209050601f831160018114610eb65760008415610ea4578287015190505b610eae8582610e30565b865550610f16565b601f198416610ec486610ca0565b60005b82811015610eec57848901518255600182019150602085019450602081019050610ec7565b86831015610f095784890151610f05601f891682610e12565b8355505b6001600288020188555050505b505050505050565b6000610f2a8385610a5d565b9350610f3783858461087a565b610f40836107bd565b840190509392505050565b60006020820190508181036000830152610f66818486610f1e565b90509392505050565b7f204e6f2063616e64696461746520666f756e6420666f7220746869732070617260008201527f7479000000000000000000000000000000000000000000000000000000000000602082015250565b6000610fcb602283610a5d565b9150610fd682610f6f565b604082019050919050565b60006020820190508181036000830152610ffa81610fbe565b9050919050565b7f205468657265206973206e6f2073756368207061727479206578697374000000600082015250565b6000611037601d83610a5d565b915061104282611001565b602082019050919050565b600060208201905081810360008301526110668161102a565b9050919050565b7f4e487b7100000000000000000000000000000000000000000000000000000000600052603260045260246000fd5b7f4e487b7100000000000000000000000000000000000000000000000000000000600052601160045260246000fd5b60006110d682610a1e565b91507fffffffffffffffffffffffffffffffffffffffffffffffffffffffffffffffff82036111085761110761109c565b5b60018201905091905056fea2646970667358221220e1441afab57866fca5b83b7f6a932b387bc5fbf868a197fe4aa1085dc46b374064736f6c63430008130033",
  "linkReferences": {},
  "deployedLinkReferences": {}
}