{
  "contractName": "Candidate",
  "abi": [
    {
      "inputs": [
        {
          "internalType": "address",
          "name": "_electionCommissionAddress",
          "type": "address"
        }
      ],
      "stateMutability": "nonpayable",
      "type": "constructor"
    },
    {
      "inputs": [
        {
          "internalType": "uint256",
          "name": "",
          "type": "uint256"
        }
      ],
      "name": "candidateData",
      "outputs": [
        {
          "internalType": "string",
          "name": "fname",
          "type": "string"
        },
        {
          "internalType": "string",
          "name": "lname",
          "type": "string"
        },
        {
          "internalType": "string",
          "name": "party_name",
          "type": "string"
        },
        {
          "internalType": "string",
          "name": "party_symbol",
          "type": "string"
        },
        {
          "internalType": "address",
          "name": "ethereum_address",
          "type": "address"
        }
      ],
      "stateMutability": "view",
      "type": "function"
    },
    {
      "inputs": [
        {
          "internalType": "string",
          "name": "_fname",
          "type": "string"
        },
        {
          "internalType": "string",
          "name": "_lname",
          "type": "string"
        },
        {
          "internalType": "string",
          "name": "_party_name",
          "type": "string"
        },
        {
          "internalType": "string",
          "name": "_party_symbol",
          "type": "string"
        },
        {
          "internalType": "address",
          "name": "candidate_address",
          "type": "address"
        }
      ],
      "name": "insertCandidateData",
      "outputs": [],
      "stateMutability": "nonpayable",
      "type": "function"
    },
    {
      "inputs": [
        {
          "internalType": "string",
          "name": "_party_name",
          "type": "string"
        }
      ],
      "name": "getCandidateDataByPartyName",
      "outputs": [
        {
          "components": [
            {
              "internalType": "string",
              "name": "fname",
              "type": "string"
            },
            {
              "internalType": "string",
              "name": "lname",
              "type": "string"
            },
            {
              "internalType": "string",
              "name": "party_name",
              "type": "string"
            },
            {
              "internalType": "string",
              "name": "party_symbol",
              "type": "string"
            },
            {
              "internalType": "address",
              "name": "ethereum_address",
              "type": "address"
            }
          ],
          "internalType": "struct Candidate.candidate_template_data",
          "name": "_candidate",
          "type": "tuple"
        }
      ],
      "stateMutability": "view",
      "type": "function"
    },
    {
      "inputs": [
        {
          "internalType": "string",
          "name": "_party_name",
          "type": "string"
        }
      ],
      "name": "getCandidateAddressByPartyName",
      "outputs": [
        {
          "internalType": "address",
          "name": "_candidate_address",
          "type": "address"
        }
      ],
      "stateMutability": "view",
      "type": "function"
    },
    {
      "inputs": [],
      "name": "getPartiesList",
      "outputs": [
        {
          "internalType": "string[]",
          "name": "parties",
          "type": "string[]"
        }
      ],
      "stateMutability": "view",
      "type": "function"
    }
  ],
  "bytecode": "0x60806040523480156200001157600080fd5b506040516200172038038062001720833981810160405281019062000037919062000096565b80600160006101000a81548173ffffffffffffffffffffffffffffffffffffffff021916908373ffffffffffffffffffffffffffffffffffffffff1602179055505062000110565b6000815190506200009081620000f6565b92915050565b600060208284031215620000a957600080fd5b6000620000b9848285016200007f565b91505092915050565b6000620000cf82620000d6565b9050919050565b600073ffffffffffffffffffffffffffffffffffffffff82169050919050565b6200010181620000c2565b81146200010d57600080fd5b50565b61160080620001206000396000f3fe608060405234801561001057600080fd5b50600436106100565760003560e01c80621d51f91461005b578063318c95d91461008b57806337a811a1146100a75780638b209dcd146100c55780638ec9bc6a146100f9575b600080fd5b61007560048036038101906100709190610e8c565b610129565b604051610082919061138c565b60405180910390f35b6100a560048036038101906100a09190610ed1565b6104d3565b005b6100af6107cc565b6040516100bc91906112db565b60405180910390f35b6100df60048036038101906100da9190610fb9565b610988565b6040516100f09594939291906112fd565b60405180910390f35b610113600480360381019061010e9190610e8c565b610c0e565b60405161012091906112c0565b60405180910390f35b610131610d30565b60005b6000805490508110156104cb578383604051610151929190611290565b604051809103902060008281548110610193577f4e487b7100000000000000000000000000000000000000000000000000000000600052603260045260246000fd5b90600052602060002090600502016002016040516101b191906112a9565b604051809103902014156104b857600081815481106101f9577f4e487b7100000000000000000000000000000000000000000000000000000000600052603260045260246000fd5b90600052602060002090600502016040518060a0016040529081600082018054610222906114b2565b80601f016020809104026020016040519081016040528092919081815260200182805461024e906114b2565b801561029b5780601f106102705761010080835404028352916020019161029b565b820191906000526020600020905b81548152906001019060200180831161027e57829003601f168201915b505050505081526020016001820180546102b4906114b2565b80601f01602080910402602001604051908101604052809291908181526020018280546102e0906114b2565b801561032d5780601f106103025761010080835404028352916020019161032d565b820191906000526020600020905b81548152906001019060200180831161031057829003601f168201915b50505050508152602001600282018054610346906114b2565b80601f0160208091040260200160405190810160405280929190818152602001828054610372906114b2565b80156103bf5780601f10610394576101008083540402835291602001916103bf565b820191906000526020600020905b8154815290600101906020018083116103a257829003601f168201915b505050505081526020016003820180546103d8906114b2565b80601f0160208091040260200160405190810160405280929190818152602001828054610404906114b2565b80156104515780601f1061042657610100808354040283529160200191610451565b820191906000526020600020905b81548152906001019060200180831161043457829003601f168201915b505050505081526020016004820160009054906101000a900473ffffffffffffffffffffffffffffffffffffffff1673ffffffffffffffffffffffffffffffffffffffff1673ffffffffffffffffffffffffffffffffffffffff16815250509150506104cd565b80806104c3906114e4565b915050610134565b505b92915050565b600160009054906101000a900473ffffffffffffffffffffffffffffffffffffffff1673ffffffffffffffffffffffffffffffffffffffff163373ffffffffffffffffffffffffffffffffffffffff1614610563576040517f08c379a000000000000000000000000000000000000000000000000000000000815260040161055a9061136c565b60405180910390fd5b61056b610d30565b89898080601f016020809104026020016040519081016040528093929190818152602001838380828437600081840152601f19601f82011690508083019250505050505050816000018190525087878080601f016020809104026020016040519081016040528093929190818152602001838380828437600081840152601f19601f82011690508083019250505050505050816020018190525083838080601f016020809104026020016040519081016040528093929190818152602001838380828437600081840152601f19601f82011690508083019250505050505050816060018190525085858080601f016020809104026020016040519081016040528093929190818152602001838380828437600081840152601f19601f82011690508083019250505050505050816040018190525081816080019073ffffffffffffffffffffffffffffffffffffffff16908173ffffffffffffffffffffffffffffffffffffffff16815250506000819080600181540180825580915050600190039060005260206000209060050201600090919091909150600082015181600001908051906020019061071f929190610d75565b50602082015181600101908051906020019061073c929190610d75565b506040820151816002019080519060200190610759929190610d75565b506060820151816003019080519060200190610776929190610d75565b5060808201518160040160006101000a81548173ffffffffffffffffffffffffffffffffffffffff021916908373ffffffffffffffffffffffffffffffffffffffff160217905550505050505050505050505050565b606060008054905067ffffffffffffffff811115610813577f4e487b7100000000000000000000000000000000000000000000000000000000600052604160045260246000fd5b60405190808252806020026020018201604052801561084657816020015b60608152602001906001900390816108315790505b50905060005b6000805490508110156109845760008181548110610893577f4e487b7100000000000000000000000000000000000000000000000000000000600052603260045260246000fd5b906000526020600020906005020160020180546108af906114b2565b80601f01602080910402602001604051908101604052809291908181526020018280546108db906114b2565b80156109285780601f106108fd57610100808354040283529160200191610928565b820191906000526020600020905b81548152906001019060200180831161090b57829003601f168201915b5050505050828281518110610966577f4e487b7100000000000000000000000000000000000000000000000000000000600052603260045260246000fd5b6020026020010181905250808061097c906114e4565b91505061084c565b5090565b6000818154811061099857600080fd5b90600052602060002090600502016000915090508060000180546109bb906114b2565b80601f01602080910402602001604051908101604052809291908181526020018280546109e7906114b2565b8015610a345780601f10610a0957610100808354040283529160200191610a34565b820191906000526020600020905b815481529060010190602001808311610a1757829003601f168201915b505050505090806001018054610a49906114b2565b80601f0160208091040260200160405190810160405280929190818152602001828054610a75906114b2565b8015610ac25780601f10610a9757610100808354040283529160200191610ac2565b820191906000526020600020905b815481529060010190602001808311610aa557829003601f168201915b505050505090806002018054610ad7906114b2565b80601f0160208091040260200160405190810160405280929190818152602001828054610b03906114b2565b8015610b505780601f10610b2557610100808354040283529160200191610b50565b820191906000526020600020905b815481529060010190602001808311610b3357829003601f168201915b505050505090806003018054610b65906114b2565b80601f0160208091040260200160405190810160405280929190818152602001828054610b91906114b2565b8015610bde5780601f10610bb357610100808354040283529160200191610bde565b820191906000526020600020905b815481529060010190602001808311610bc157829003601f168201915b5050505050908060040160009054906101000a900473ffffffffffffffffffffffffffffffffffffffff16905085565b600080600090505b600080549050811015610d28578383604051610c33929190611290565b604051809103902060008281548110610c75577f4e487b7100000000000000000000000000000000000000000000000000000000600052603260045260246000fd5b9060005260206000209060050201600201604051610c9391906112a9565b60405180910390201415610d155760008181548110610cdb577f4e487b7100000000000000000000000000000000000000000000000000000000600052603260045260246000fd5b906000526020600020906005020160040160009054906101000a900473ffffffffffffffffffffffffffffffffffffffff16915050610d2a565b8080610d20906114e4565b915050610c16565b505b92915050565b6040518060a0016040528060608152602001606081526020016060815260200160608152602001600073ffffffffffffffffffffffffffffffffffffffff1681525090565b828054610d81906114b2565b90600052602060002090601f016020900481019282610da35760008555610dea565b82601f10610dbc57805160ff1916838001178555610dea565b82800160010185558215610dea579182015b82811115610de9578251825591602001919060010190610dce565b5b509050610df79190610dfb565b5090565b5b80821115610e14576000816000905550600101610dfc565b5090565b600081359050610e278161159c565b92915050565b60008083601f840112610e3f57600080fd5b8235905067ffffffffffffffff811115610e5857600080fd5b602083019150836001820283011115610e7057600080fd5b9250929050565b600081359050610e86816115b3565b92915050565b60008060208385031215610e9f57600080fd5b600083013567ffffffffffffffff811115610eb957600080fd5b610ec585828601610e2d565b92509250509250929050565b600080600080600080600080600060a08a8c031215610eef57600080fd5b60008a013567ffffffffffffffff811115610f0957600080fd5b610f158c828d01610e2d565b995099505060208a013567ffffffffffffffff811115610f3457600080fd5b610f408c828d01610e2d565b975097505060408a013567ffffffffffffffff811115610f5f57600080fd5b610f6b8c828d01610e2d565b955095505060608a013567ffffffffffffffff811115610f8a57600080fd5b610f968c828d01610e2d565b93509350506080610fa98c828d01610e18565b9150509295985092959850929598565b600060208284031215610fcb57600080fd5b6000610fd984828501610e77565b91505092915050565b6000610fee838361112d565b905092915050565b610fff81611434565b82525050565b61100e81611434565b82525050565b600061101f826113d3565b61102981856113f6565b93508360208202850161103b856113ae565b8060005b8581101561107757848403895281516110588582610fe2565b9450611063836113e9565b925060208a0199505060018101905061103f565b50829750879550505050505092915050565b60006110958385611407565b93506110a2838584611470565b82840190509392505050565b600081546110bb816114b2565b6110c58186611407565b945060018216600081146110e057600181146110f157611124565b60ff19831686528186019350611124565b6110fa856113be565b60005b8381101561111c578154818901526001820191506020810190506110fd565b838801955050505b50505092915050565b6000611138826113de565b6111428185611412565b935061115281856020860161147f565b61115b8161158b565b840191505092915050565b6000611171826113de565b61117b8185611423565b935061118b81856020860161147f565b6111948161158b565b840191505092915050565b60006111ac603883611423565b91507f496e636f6d696e672063616c6c206973206e6f742066726f6d20456c6563746960008301527f6f6e20436f6d6d697373696f6e277320636f6e747261637400000000000000006020830152604082019050919050565b600060a0830160008301518482036000860152611222828261112d565b9150506020830151848203602086015261123c828261112d565b91505060408301518482036040860152611256828261112d565b91505060608301518482036060860152611270828261112d565b91505060808301516112856080860182610ff6565b508091505092915050565b600061129d828486611089565b91508190509392505050565b60006112b582846110ae565b915081905092915050565b60006020820190506112d56000830184611005565b92915050565b600060208201905081810360008301526112f58184611014565b905092915050565b600060a08201905081810360008301526113178188611166565b9050818103602083015261132b8187611166565b9050818103604083015261133f8186611166565b905081810360608301526113538185611166565b90506113626080830184611005565b9695505050505050565b600060208201905081810360008301526113858161119f565b9050919050565b600060208201905081810360008301526113a68184611205565b905092915050565b6000819050602082019050919050565b60008190508160005260206000209050919050565b600081519050919050565b600081519050919050565b6000602082019050919050565b600082825260208201905092915050565b600081905092915050565b600082825260208201905092915050565b600082825260208201905092915050565b600061143f82611446565b9050919050565b600073ffffffffffffffffffffffffffffffffffffffff82169050919050565b6000819050919050565b82818337600083830152505050565b60005b8381101561149d578082015181840152602081019050611482565b838111156114ac576000848401525b50505050565b600060028204905060018216806114ca57607f821691505b602082108114156114de576114dd61155c565b5b50919050565b60006114ef82611466565b91507fffffffffffffffffffffffffffffffffffffffffffffffffffffffffffffffff8214156115225761152161152d565b5b600182019050919050565b7f4e487b7100000000000000000000000000000000000000000000000000000000600052601160045260246000fd5b7f4e487b7100000000000000000000000000000000000000000000000000000000600052602260045260246000fd5b6000601f19601f8301169050919050565b6115a581611434565b81146115b057600080fd5b50565b6115bc81611466565b81146115c757600080fd5b5056fea2646970667358221220719ac7d7f4a30401ad3e2db3bd46be8c468600e1ea55418a2ed45f1f3a63262f64736f6c63430008000033",
  "immutableReferences": {},
  "source": "// SPDX-License-Identifier: MIT\r\npragma solidity >=0.4.22 <0.9.0;\r\npragma abicoder v2;\r\n\r\n\r\n\r\ncontract Candidate {\r\n    \r\n    \r\n    struct candidate_template_data {\r\n        \r\n        string fname;\r\n        string lname;\r\n        string party_name;\r\n        string party_symbol;\r\n        address ethereum_address;\r\n    }\r\n    \r\n    \r\n    candidate_template_data [] public candidateData;\r\n    \r\n    address electionCommissionAddress;\r\n    \r\n    constructor (address _electionCommissionAddress) public \r\n    {\r\n        electionCommissionAddress = _electionCommissionAddress;\r\n        \r\n    }\r\n    \r\n    \r\n    function insertCandidateData(string calldata _fname, string calldata _lname, string calldata _party_name,string calldata  _party_symbol, address candidate_address) external \r\n    {\r\n        \r\n        require(msg.sender == electionCommissionAddress , \"Incoming call is not from Election Commission's contract\");\r\n        \r\n        candidate_template_data memory obj ;\r\n        \r\n        obj.fname = _fname;\r\n        obj.lname = _lname;\r\n        obj.party_symbol = _party_symbol;\r\n        obj.party_name = _party_name;\r\n        obj.ethereum_address = candidate_address;\r\n        \r\n        candidateData.push(obj);\r\n    }\r\n    \r\n    \r\n    function getCandidateDataByPartyName(string calldata _party_name) public view returns (candidate_template_data memory  _candidate)\r\n    {\r\n        \r\n        for(uint loop= 0; loop<candidateData.length; loop++)\r\n        {\r\n            if(keccak256(bytes(candidateData[loop].party_name)) == keccak256(bytes(_party_name)))\r\n            {\r\n                return candidateData[loop];\r\n            }\r\n        }\r\n        \r\n    }\r\n    \r\n    function getCandidateAddressByPartyName(string calldata _party_name) public view returns (address   _candidate_address)\r\n    {\r\n        \r\n        for(uint loop= 0; loop<candidateData.length; loop++)\r\n        {\r\n            if(keccak256(bytes(candidateData[loop].party_name)) == keccak256(bytes(_party_name)))\r\n            {\r\n                return candidateData[loop].ethereum_address;\r\n            }\r\n        }\r\n        \r\n    }\r\n    \r\n    \r\n    function getPartiesList() external view returns(string [] memory parties)\r\n    {\r\n         parties = new string[](candidateData.length);\r\n         \r\n         for(uint loop=0; loop<candidateData.length; loop++)\r\n         {\r\n             parties[loop] =candidateData[loop].party_name; \r\n             \r\n         }\r\n        \r\n    }\r\n    \r\n    \r\n    \r\n}",
  "sourcePath": "G:\\Alnafi\\2_Decentralized_Application_Course\\5_election_dapp\\contracts\\Candidate.sol",
  "compiler": {
    "name": "solc",
    "version": "0.8.0+commit.c7dfd78e.Emscripten.clang"
  },
  "schemaVersion": "3.3.4",
  "updatedAt": "2021-06-21T17:37:54.344Z",
  "devdoc": {
    "kind": "dev",
    "methods": {},
    "version": 1
  },
  "userdoc": {
    "kind": "user",
    "methods": {},
    "version": 1
  }
}