{
  "_format": "hh-sol-artifact-1",
  "contractName": "Voter",
  "sourceName": "contracts/Voter.sol",
  "abi": [
    {
      "inputs": [
        {
          "internalType": "address",
          "name": "_candidateAddress",
          "type": "address"
        }
      ],
      "stateMutability": "nonpayable",
      "type": "constructor"
    },
    {
      "inputs": [
        {
          "internalType": "string",
          "name": "_party_name",
          "type": "string"
        }
      ],
      "name": "getVotesByParty",
      "outputs": [
        {
          "internalType": "uint256",
          "name": "total_votes",
          "type": "uint256"
        }
      ],
      "stateMutability": "view",
      "type": "function"
    },
    {
      "inputs": [
        {
          "internalType": "string",
          "name": "national_id",
          "type": "string"
        },
        {
          "internalType": "string",
          "name": "_party_name",
          "type": "string"
        }
      ],
      "name": "insertVoteByParty",
      "outputs": [],
      "stateMutability": "nonpayable",
      "type": "function"
    },
    {
      "inputs": [
        {
          "internalType": "string",
          "name": "_party_name",
          "type": "string"
        }
      ],
      "name": "verifyMyVote",
      "outputs": [
        {
          "internalType": "string",
          "name": "nicop",
          "type": "string"
        },
        {
          "internalType": "uint256",
          "name": "voter_index",
          "type": "uint256"
        }
      ],
      "stateMutability": "view",
      "type": "function"
    }
  ],
  "bytecode": "0x60806040523480156200001157600080fd5b5060405162001274380380620012748339818101604052810190620000379190620000e9565b80600160006101000a81548173ffffffffffffffffffffffffffffffffffffffff021916908373ffffffffffffffffffffffffffffffffffffffff160217905550506200011b565b600080fd5b600073ffffffffffffffffffffffffffffffffffffffff82169050919050565b6000620000b18262000084565b9050919050565b620000c381620000a4565b8114620000cf57600080fd5b50565b600081519050620000e381620000b8565b92915050565b6000602082840312156200010257620001016200007f565b5b60006200011284828501620000d2565b91505092915050565b611149806200012b6000396000f3fe608060405234801561001057600080fd5b50600436106100415760003560e01c80630642d7e1146100465780634dd6c17e14610062578063567fdd9b14610092575b600080fd5b610060600480360381019061005b91906108f9565b6100c3565b005b61007c600480360381019061007791906109d1565b6102e8565b6040516100899190610a37565b60405180910390f35b6100ac60048036038101906100a791906109d1565b610445565b6040516100ba929190610ad1565b60405180910390f35b6000600160009054906101000a900473ffffffffffffffffffffffffffffffffffffffff1673ffffffffffffffffffffffffffffffffffffffff16638ec9bc6a836040518263ffffffff1660e01b81526004016101209190610b01565b602060405180830381865afa15801561013d573d6000803e3d6000fd5b505050506040513d601f19601f820116820180604052508101906101619190610b81565b9050600073ffffffffffffffffffffffffffffffffffffffff168173ffffffffffffffffffffffffffffffffffffffff16036101d2576040517f08c379a00000000000000000000000000000000000000000000000000000000081526004016101c990610c20565b60405180910390fd5b6101da61076f565b83816000018190525033816020019073ffffffffffffffffffffffffffffffffffffffff16908173ffffffffffffffffffffffffffffffffffffffff16815250506000808373ffffffffffffffffffffffffffffffffffffffff1673ffffffffffffffffffffffffffffffffffffffff16815260200190815260200160002081908060018154018082558091505060019003906000526020600020906002020160009091909190915060008201518160000190816102989190610e4c565b5060208201518160010160006101000a81548173ffffffffffffffffffffffffffffffffffffffff021916908373ffffffffffffffffffffffffffffffffffffffff160217905550505050505050565b600080600160009054906101000a900473ffffffffffffffffffffffffffffffffffffffff1673ffffffffffffffffffffffffffffffffffffffff16638ec9bc6a85856040518363ffffffff1660e01b8152600401610348929190610f4b565b602060405180830381865afa158015610365573d6000803e3d6000fd5b505050506040513d601f19601f820116820180604052508101906103899190610b81565b9050600073ffffffffffffffffffffffffffffffffffffffff168173ffffffffffffffffffffffffffffffffffffffff16036103fa576040517f08c379a00000000000000000000000000000000000000000000000000000000081526004016103f190610fe1565b60405180910390fd5b6000808273ffffffffffffffffffffffffffffffffffffffff1673ffffffffffffffffffffffffffffffffffffffff1681526020019081526020016000208054905091505092915050565b6060600080600160009054906101000a900473ffffffffffffffffffffffffffffffffffffffff1673ffffffffffffffffffffffffffffffffffffffff16638ec9bc6a86866040518363ffffffff1660e01b81526004016104a7929190610f4b565b602060405180830381865afa1580156104c4573d6000803e3d6000fd5b505050506040513d601f19601f820116820180604052508101906104e89190610b81565b9050600073ffffffffffffffffffffffffffffffffffffffff168173ffffffffffffffffffffffffffffffffffffffff1603610559576040517f08c379a00000000000000000000000000000000000000000000000000000000081526004016105509061104d565b60405180910390fd5b60005b6000808373ffffffffffffffffffffffffffffffffffffffff1673ffffffffffffffffffffffffffffffffffffffff16815260200190815260200160002080549050811015610765573373ffffffffffffffffffffffffffffffffffffffff166000808473ffffffffffffffffffffffffffffffffffffffff1673ffffffffffffffffffffffffffffffffffffffff168152602001908152602001600020828154811061060c5761060b61106d565b5b906000526020600020906002020160010160009054906101000a900473ffffffffffffffffffffffffffffffffffffffff1673ffffffffffffffffffffffffffffffffffffffff1603610752576000808373ffffffffffffffffffffffffffffffffffffffff1673ffffffffffffffffffffffffffffffffffffffff16815260200190815260200160002081815481106106a9576106a861106d565b5b9060005260206000209060020201600001818180546106c790610c6f565b80601f01602080910402602001604051908101604052809291908181526020018280546106f390610c6f565b80156107405780601f1061071557610100808354040283529160200191610740565b820191906000526020600020905b81548152906001019060200180831161072357829003601f168201915b50505050509150935093505050610768565b808061075d906110cb565b91505061055c565b50505b9250929050565b604051806040016040528060608152602001600073ffffffffffffffffffffffffffffffffffffffff1681525090565b6000604051905090565b600080fd5b600080fd5b600080fd5b600080fd5b6000601f19601f8301169050919050565b7f4e487b7100000000000000000000000000000000000000000000000000000000600052604160045260246000fd5b610806826107bd565b810181811067ffffffffffffffff82111715610825576108246107ce565b5b80604052505050565b600061083861079f565b905061084482826107fd565b919050565b600067ffffffffffffffff821115610864576108636107ce565b5b61086d826107bd565b9050602081019050919050565b82818337600083830152505050565b600061089c61089784610849565b61082e565b9050828152602081018484840111156108b8576108b76107b8565b5b6108c384828561087a565b509392505050565b600082601f8301126108e0576108df6107b3565b5b81356108f0848260208601610889565b91505092915050565b600080604083850312156109105761090f6107a9565b5b600083013567ffffffffffffffff81111561092e5761092d6107ae565b5b61093a858286016108cb565b925050602083013567ffffffffffffffff81111561095b5761095a6107ae565b5b610967858286016108cb565b9150509250929050565b600080fd5b600080fd5b60008083601f840112610991576109906107b3565b5b8235905067ffffffffffffffff8111156109ae576109ad610971565b5b6020830191508360018202830111156109ca576109c9610976565b5b9250929050565b600080602083850312156109e8576109e76107a9565b5b600083013567ffffffffffffffff811115610a0657610a056107ae565b5b610a128582860161097b565b92509250509250929050565b6000819050919050565b610a3181610a1e565b82525050565b6000602082019050610a4c6000830184610a28565b92915050565b600081519050919050565b600082825260208201905092915050565b60005b83811015610a8c578082015181840152602081019050610a71565b60008484015250505050565b6000610aa382610a52565b610aad8185610a5d565b9350610abd818560208601610a6e565b610ac6816107bd565b840191505092915050565b60006040820190508181036000830152610aeb8185610a98565b9050610afa6020830184610a28565b9392505050565b60006020820190508181036000830152610b1b8184610a98565b905092915050565b600073ffffffffffffffffffffffffffffffffffffffff82169050919050565b6000610b4e82610b23565b9050919050565b610b5e81610b43565b8114610b6957600080fd5b50565b600081519050610b7b81610b55565b92915050565b600060208284031215610b9757610b966107a9565b5b6000610ba584828501610b6c565b91505092915050565b7f205468657265206973206e6f2063616e64696461746520666f7220746869732060008201527f706172747920696e2074686520636f6e74726163740000000000000000000000602082015250565b6000610c0a603583610a5d565b9150610c1582610bae565b604082019050919050565b60006020820190508181036000830152610c3981610bfd565b9050919050565b7f4e487b7100000000000000000000000000000000000000000000000000000000600052602260045260246000fd5b60006002820490506001821680610c8757607f821691505b602082108103610c9a57610c99610c40565b5b50919050565b60008190508160005260206000209050919050565b60006020601f8301049050919050565b600082821b905092915050565b600060088302610d027fffffffffffffffffffffffffffffffffffffffffffffffffffffffffffffffff82610cc5565b610d0c8683610cc5565b95508019841693508086168417925050509392505050565b6000819050919050565b6000610d49610d44610d3f84610a1e565b610d24565b610a1e565b9050919050565b6000819050919050565b610d6383610d2e565b610d77610d6f82610d50565b848454610cd2565b825550505050565b600090565b610d8c610d7f565b610d97818484610d5a565b505050565b5b81811015610dbb57610db0600082610d84565b600181019050610d9d565b5050565b601f821115610e0057610dd181610ca0565b610dda84610cb5565b81016020851015610de9578190505b610dfd610df585610cb5565b830182610d9c565b50505b505050565b600082821c905092915050565b6000610e2360001984600802610e05565b1980831691505092915050565b6000610e3c8383610e12565b9150826002028217905092915050565b610e5582610a52565b67ffffffffffffffff811115610e6e57610e6d6107ce565b5b610e788254610c6f565b610e83828285610dbf565b600060209050601f831160018114610eb65760008415610ea4578287015190505b610eae8582610e30565b865550610f16565b601f198416610ec486610ca0565b60005b82811015610eec57848901518255600182019150602085019450602081019050610ec7565b86831015610f095784890151610f05601f891682610e12565b8355505b6001600288020188555050505b505050505050565b6000610f2a8385610a5d565b9350610f3783858461087a565b610f40836107bd565b840190509392505050565b60006020820190508181036000830152610f66818486610f1e565b90509392505050565b7f204e6f2063616e64696461746520666f756e6420666f7220746869732070617260008201527f7479000000000000000000000000000000000000000000000000000000000000602082015250565b6000610fcb602283610a5d565b9150610fd682610f6f565b604082019050919050565b60006020820190508181036000830152610ffa81610fbe565b9050919050565b7f205468657265206973206e6f2073756368207061727479206578697374000000600082015250565b6000611037601d83610a5d565b915061104282611001565b602082019050919050565b600060208201905081810360008301526110668161102a565b9050919050565b7f4e487b7100000000000000000000000000000000000000000000000000000000600052603260045260246000fd5b7f4e487b7100000000000000000000000000000000000000000000000000000000600052601160045260246000fd5b60006110d682610a1e565b91507fffffffffffffffffffffffffffffffffffffffffffffffffffffffffffffffff82036111085761110761109c565b5b60018201905091905056fea2646970667358221220e1441afab57866fca5b83b7f6a932b387bc5fbf868a197fe4aa1085dc46b374064736f6c63430008130033",
  "linkReferences": {},
  "deployedLinkReferences": {}
}